{
  "contractName": "SimpleStorage",
  "abi": [
    {
      "anonymous": false,
      "inputs": [
        {
          "indexed": false,
          "internalType": "uint256",
          "name": "_val",
          "type": "uint256"
        }
      ],
      "name": "valueChanged",
      "type": "event"
    },
    {
      "inputs": [],
      "name": "read",
      "outputs": [
        {
          "internalType": "uint256",
          "name": "",
          "type": "uint256"
        }
      ],
      "stateMutability": "view",
      "type": "function",
      "constant": true
    },
    {
      "inputs": [
        {
          "internalType": "uint256",
          "name": "newValue",
          "type": "uint256"
        }
      ],
      "name": "write",
      "outputs": [],
      "stateMutability": "nonpayable",
      "type": "function"
    },
    {
      "inputs": [],
      "name": "greet",
      "outputs": [
        {
          "internalType": "string",
          "name": "",
          "type": "string"
        }
      ],
      "stateMutability": "view",
      "type": "function",
      "constant": true
    },
    {
      "inputs": [
        {
          "internalType": "string",
          "name": "newValue",
          "type": "string"
        }
      ],
      "name": "setGreet",
      "outputs": [],
      "stateMutability": "nonpayable",
      "type": "function"
    }
  ],
  "bytecode": "0x608060405234801561001057600080fd5b506106fe806100206000396000f3fe608060405234801561001057600080fd5b506004361061004c5760003560e01c80632f048afa1461005157806357de26a41461006d5780639698086b1461008b578063cfae3217146100a7575b600080fd5b61006b600480360381019061006691906101f7565b6100c5565b005b610075610106565b6040516100829190610233565b60405180910390f35b6100a560048036038101906100a091906102b3565b61010f565b005b6100af610125565b6040516100bc9190610390565b60405180910390f35b806000819055507fc0dd44d3f117c96295a84b2eb7b3f6abe929928d111b030bfb3568f5efa0ff1f816040516100fb9190610233565b60405180910390a150565b60008054905090565b8181600191826101209291906105f8565b505050565b6060600180546101349061041b565b80601f01602080910402602001604051908101604052809291908181526020018280546101609061041b565b80156101ad5780601f10610182576101008083540402835291602001916101ad565b820191906000526020600020905b81548152906001019060200180831161019057829003601f168201915b5050505050905090565b600080fd5b600080fd5b6000819050919050565b6101d4816101c1565b81146101df57600080fd5b50565b6000813590506101f1816101cb565b92915050565b60006020828403121561020d5761020c6101b7565b5b600061021b848285016101e2565b91505092915050565b61022d816101c1565b82525050565b60006020820190506102486000830184610224565b92915050565b600080fd5b600080fd5b600080fd5b60008083601f8401126102735761027261024e565b5b8235905067ffffffffffffffff8111156102905761028f610253565b5b6020830191508360018202830111156102ac576102ab610258565b5b9250929050565b600080602083850312156102ca576102c96101b7565b5b600083013567ffffffffffffffff8111156102e8576102e76101bc565b5b6102f48582860161025d565b92509250509250929050565b600081519050919050565b600082825260208201905092915050565b60005b8381101561033a57808201518184015260208101905061031f565b60008484015250505050565b6000601f19601f8301169050919050565b600061036282610300565b61036c818561030b565b935061037c81856020860161031c565b61038581610346565b840191505092915050565b600060208201905081810360008301526103aa8184610357565b905092915050565b600082905092915050565b7f4e487b7100000000000000000000000000000000000000000000000000000000600052604160045260246000fd5b7f4e487b7100000000000000000000000000000000000000000000000000000000600052602260045260246000fd5b6000600282049050600182168061043357607f821691505b602082108103610446576104456103ec565b5b50919050565b60008190508160005260206000209050919050565b60006020601f8301049050919050565b600082821b905092915050565b6000600883026104ae7fffffffffffffffffffffffffffffffffffffffffffffffffffffffffffffffff82610471565b6104b88683610471565b95508019841693508086168417925050509392505050565b6000819050919050565b60006104f56104f06104eb846101c1565b6104d0565b6101c1565b9050919050565b6000819050919050565b61050f836104da565b61052361051b826104fc565b84845461047e565b825550505050565b600090565b61053861052b565b610543818484610506565b505050565b5b818110156105675761055c600082610530565b600181019050610549565b5050565b601f8211156105ac5761057d8161044c565b61058684610461565b81016020851015610595578190505b6105a96105a185610461565b830182610548565b50505b505050565b600082821c905092915050565b60006105cf600019846008026105b1565b1980831691505092915050565b60006105e883836105be565b9150826002028217905092915050565b61060283836103b2565b67ffffffffffffffff81111561061b5761061a6103bd565b5b610625825461041b565b61063082828561056b565b6000601f83116001811461065f576000841561064d578287013590505b61065785826105dc565b8655506106bf565b601f19841661066d8661044c565b60005b8281101561069557848901358255600182019150602085019450602081019050610670565b868310156106b257848901356106ae601f8916826105be565b8355505b6001600288020188555050505b5050505050505056fea2646970667358221220bac14e423808a1571055f9693d0c95e0f88b73c209e6ba243e07da2c18dce2e264736f6c63430008110033",
  "immutableReferences": {},
  "source": "// SPDX-License-Identifier: MIT\npragma solidity >=0.4.22 <0.9.0;\n\ncontract SimpleStorage {\n  uint256 value;\n  string greeter;\n\n  event valueChanged(uint _val);\n\n  function read() public view returns (uint256) {\n    return value;\n  }\n\n  function write(uint256 newValue) public {\n    value = newValue;\n    emit valueChanged(newValue);\n  }\n\n   function greet() public view returns (string memory) {\n    return greeter;\n  }\n\n  function setGreet(string calldata newValue) public {\n    greeter = newValue;\n  }\n}\n",
  "sourcePath": "/home/tonycage/Web3/simple-storage-react/truffle/contracts/SimpleStorage.sol",
  "compiler": {
    "name": "solc",
    "version": "0.8.17+commit.8df45f5f.Emscripten.clang"
  },
  "schemaVersion": "3.4.10",
  "updatedAt": "2022-11-10T09:14:32.926Z",
  "networkType": "ethereum",
  "devdoc": {
    "kind": "dev",
    "methods": {},
    "version": 1
  },
  "userdoc": {
    "kind": "user",
    "methods": {},
    "version": 1
  }
}